:100000000C9462000C948A000C948A000C948A0070
:100010000C948A000C948A000C948A000C948A0038
:100020000C948A000C948A000C948A000C948A0028
:100030000C948A000C948A000C948A000C948A0018
:100040000C941F030C948A000C948A000C948A0070
:100050000C948A000C948A000C948A000C948A00F8
:100060000C948A000C948A000000000024002700F1
:100070002A0000000000250028002B0000000000DE
:1000800023002600290004040404040404040202DA
:100090000202020203030303030301020408102007
:1000A0004080010204081020010204081020000012
:1000B0000008000201000003040700000000000027
:1000C0000000220811241FBECFEFD8E0DEBFCDBF55
:1000D00011E0A0E0B1E0E0E3F6E102C005900D928E
:1000E000AC31B107D9F721E0ACE1B1E001C01D921C
:1000F000A83EB207E1F710E0C2E6D0E004C02197C5
:10010000FE010E94C908C136D107C9F70E946903E0
:100110000C94160B0C940000833081F028F481308D
:1001200099F08230A9F008958730A9F08830C9F09D
:100130008430B1F4809180008F7D03C08091800075
:100140008F7780938000089584B58F7784BD08955C
:1001500084B58F7DFBCF8091B0008F778093B00006
:1001600008958091B0008F7DF9CFCF93DF93282F32
:1001700030E0F901E255FF4F8491F901E656FF4F57
:10018000D491F901EA57FF4FC491CC23A1F081111A
:100190000E948C00EC2FF0E0EE0FFF1FE458FF4FA1
:1001A000A591B491EC91ED2381E090E009F480E019
:1001B000DF91CF91089580E090E0FACF1F93CF9325
:1001C000DF93282F30E0F901E255FF4F8491F901C8
:1001D000E656FF4FD491F901EA57FF4FC491CC2363
:1001E000A9F0162F81110E948C00EC2FF0E0EE0F89
:1001F000FF1FEE58FF4FA591B4918FB7F894EC9183
:10020000111108C0D095DE23DC938FBFDF91CF9111
:100210001F910895DE2BF8CF61E08091E0010C94EE
:10022000DE00CF93DF9390E0FC01E656FF4F249170
:100230008A579F4FFC0184918823D1F090E0880F6A
:10024000991FFC01E859FF4FA591B491FC01EE58AC
:10025000FF4FC591D49161110EC09FB7F8948C9156
:10026000E22FE0958E238C932881E223E8839FBFC1
:10027000DF91CF9108958FB7F894EC91E22BEC9336
:100280008FBFF6CF8E3008F08E50877080648093D9
:100290007C0080917A00806480937A0080917A005B
:1002A00086FDFCCF809178009091790008953FB74A
:1002B000F8948091C9019091CA01A091CB01B091AD
:1002C000CC0126B5A89B05C02F3F19F00196A11DB2
:1002D000B11D3FBFBA2FA92F982F8827BC01CD0190
:1002E000620F711D811D911D42E0660F771F881FEF
:1002F000991F4A95D1F708952FB7F8946091C501D9
:100300007091C6018091C7019091C8012FBF0895D7
:100310008EBD00000DB407FEFDCF8EB508950F937E
:100320001F930091E1011091E2012091E3013091CE
:10033000E40140E052E16AE770E080E0041715074D
:100340002607370740F476956795579547958F5F51
:100350008630A1F787E0982F906A969580958170F6
:100360009CBD8DBD60E08091E0011F910F910C94C8
:10037000DE00CF93C82F0E948F0183E00E94880186
:100380008C2F0E94880180E00E948801C82F0E9463
:100390000C018C2FCF9108951F93CF93DF93182FCB
:1003A000D62FC42F0E948F0185E00E948801812FE3
:1003B0000E9488018D2F0E9488018C2F0E94880145
:1003C000DF91CF911F910C940C01CF92DF92EF92AD
:1003D000FF92CF93C82F482F60EE8FE00E94CC0190
:1003E0000E947C016B017C012AE0C20ED11CE11C41
:1003F000F11C0E947C016C157D058E059F0580F423
:100400008EE00E94B901807EC813F3CF81E091E0B5
:10041000892790E0CF91FF90EF90DF90CF900895E3
:1004200080E0F5CFCF93DF93D82FC62F0E948F01A6
:1004300082E00E9488018D2F0E9488018C2F0E94EB
:100440008801DF91CF910C940C01FF920F931F93C1
:10045000CF93DF93C82FF62E172F042F0E948F0102
:1004600082E00E9488018C2F0E948801CF2DD12F1D
:100470000C0F1D2F111DC017D10721F089910E946B
:100480008801F9CFDF91CF911F910F91FF900C94CC
:100490000C018F929F92AF92BF92CF92DF92EF9218
:1004A000FF920F931F93CF93DF93CDB7DEB7639780
:1004B0000FB6F894DEBF0FBECDBF8091D401893056
:1004C00008F090C086E0E0E0F1E0DE011E960190C9
:1004D0000D928A95E1F75E018EE0A80EB11C4E01E7
:1004E000E4E18E0E911CF501E190F1905F0187012E
:1004F000000F111FF801EE0DFF1DEE5EFE4FC080D4
:100500008C2D0E94B90183FD93C0D090D401F8E0F6
:10051000FD1508F467C08091D0019091D101A091A0
:10052000D201B091D301AC01BD01442777FD4395C1
:10053000552766277727242FAC01BD01442755276F
:100540006627707488248A94982CA82CFFE1BF2E0B
:10055000211106C088248A94E7E09E2EA12CB12C9C
:1005600088219921AA21BB21222309F43EC08C8332
:100570009B83CD01AA27BB27282F220F220F220FF2
:10058000207E382F33703860232B2A8335E09695F0
:1005900087953A95E1F789838D2D452B462B472B7F
:1005A00009F080648D834D2D50E068ED71E0CE013F
:1005B00006960E940D0B45E04D0D0E0D1F1DF80116
:1005C000EE5EFE4FBE016F5F7F4F81810E9425026C
:1005D00048E068E08C2D0E94CC018C2D0E94B9016E
:1005E000807789F084E090E010C09C0193E036951C
:1005F00027959A95E1F729838295880F807E8A83D3
:100600001C821B82C9CF90E080E063960FB6F894FD
:10061000DEBF0FBECDBFDF91CF911F910F91FF9035
:10062000EF90DF90CF90BF90AF909F908F90089504
:10063000A814B90409F057CF82E090E0E6CF1F92EA
:100640000F920FB60F9211242F933F938F939F9386
:10065000AF93BF938091C5019091C601A091C7014E
:10066000B091C8013091C40123E0230F2D3758F514
:100670000196A11DB11D2093C4018093C5019093E3
:10068000C601A093C701B093C8018091C9019091A0
:10069000CA01A091CB01B091CC010196A11DB11D61
:1006A0008093C9019093CA01A093CB01B093CC0170
:1006B000BF91AF919F918F913F912F910F900FBE5E
:1006C0000F901F90189526E8230F0296A11DB11DCB
:1006D000D2CFCF93DF93CDB7DEB7C25BD1090FB6D0
:1006E000F894DEBF0FBECDBF789484B5826084BD20
:1006F00084B5816084BD85B5826085BD85B5816026
:1007000085BD80916E00816080936E0010928100A3
:10071000809181008260809381008091810081605E
:10072000809381008091800081608093800080911F
:10073000B10084608093B1008091B00081608093AB
:10074000B00080917A00846080937A0080917A0072
:10075000826080937A0080917A00816080937A0031
:1007600080917A00806880937A001092C1000E9484
:100770007C016B017C0160E08EE00E94110160E071
:100780008FE00E941101FE0175969E012B5A3F4F8A
:100790001192119211921192CF01805C9F4FDC0156
:1007A0001D921D921D921C9213972E173F0781F7E1
:1007B0008EE090E09C838B838FE090E09E838D831E
:1007C00088EE93E098878F8319861E8681E090E0FB
:1007D000988B8F87C98ADA8AEB8AFC8AF9011182A1
:1007E000108269961FAE1EAE6997C756DF4F1982F9
:1007F0001882C959D040C556DF4F19821882CB598B
:10080000D0408CE98E010F5F1F4FF801A8E2B1E0E4
:1008100001900D928A95E1F760E085E00E94110158
:1008200060E086E00E94110160E087E00E94110113
:1008300060E088E00E94110161E082E00E94110105
:1008400061E083E00E94110161E084E00E941101F7
:1008500061E081E10E9411010E948F0180EC0E9401
:1008600088010E940C010E9457014B015C01AAE023
:10087000CA2ED12CE12CF12C0E945701681979095C
:100880008A099B09683E734081059105A8F3F1E050
:10089000CF1AD108E108F10828EE820E23E0921E5B
:1008A000A11CB11CC114D104E104F10429F78EE0AC
:1008B000D8011D928A95E9F74EE0B80180E30E94C5
:1008C00025024EE0B80180E40E9425024EE0B80106
:1008D00080E50E94250260E080E60E94120260E04E
:1008E00080E70E94120263EA8BE20E94120244E057
:1008F00067E680E60E94CC0141E067E680E70E945F
:10090000CC018CE0E6E0F1E0DE01A356BF4F0190A0
:100910000D928A95E1F7FE01E356FF4F7F01D12C3E
:10092000C12CF8E0BF2ED7010D911D917D0180E80B
:100930000E94E501892B71F40230110509F442C2CD
:1009400008F0C5C10115110509F442C201301105B5
:1009500009F4C9C180E80E94E501892B61F460E0D7
:100960008AE20E94120260E989E20E94120262E8B1
:1009700088E20E94120280E00E94E50160E1262EDA
:10098000312C4424439472E0572E612C712C0E9428
:100990007C016B017C018091380190913901A0911B
:1009A0003A01B0913B01B701A601481B590B6A0BF4
:1009B0007B0B8091360190913701092E000CAA0B18
:1009C000BB0B84179507A607B70708F02BC1C09289
:1009D0003801D0923901E0923A01F0923B018091C6
:1009E0002A010E94420100917C0110917D01980131
:1009F000220F331F220F331FF901E85DFE4F5F0105
:100A0000BC01990F880B990B0E94EB09D5015496F4
:100A10006D937D938D939C935797C8010196B10177
:100A20000E94A10890937D0180937C0180917E01BA
:100A300090917F01803191052CF4019690937F0174
:100A400080937E0180912C010E9442010091C0019F
:100A50001091C1019801220F331F220F331FF9019A
:100A6000E058FE4F5F01BC01990F880B990B0E9463
:100A7000EB09D5016D937D938D939C931397C801DA
:100A80000196B1010E94A1089093C1018093C00119
:100A90008091C2019091C301803191052CF401969F
:100AA0009093C3018093C2010CE311E060E070E019
:100AB000CB01F80121913191419151918F010E9417
:100AC000D008F1E00C371F07A1F720E030E040E844
:100AD0005DE30E94A00A4B015C0120E030E0A90127
:100AE0000E949B0A20E030E040E05FE387FD89C17F
:100AF000C501B4010E94D0080E94B309CF54DF4F52
:100B000079836883C15BD04000E811E060E070E069
:100B1000CB01D8012D913D914D915D918D010E94A8
:100B2000D008E0ECF1E0E017F10799F720E030E0C1
:100B300040E85DE30E94A00A4B015C0120E030E048
:100B4000A9010E949B0A20E030E040E05FE387FDBE
:100B50005DC1C501B4010E94D0080E94B3098B0198
:100B6000CF54DF4F28813981C15BD04030932901B8
:100B700020932801B901330F880B990B0E94EB09D0
:100B800020E030E040E85AE30E94A00A4B015C01FB
:100B9000B801110F880B990B0E94EB092CE730EF7D
:100BA00041EC5FE30E94A00A20E030E040E85AE315
:100BB0000E94A00A9B01AC01C501B4010E94CF08AC
:100BC0004B015C0120E030E0A9010E949B0A18164D
:100BD00024F0B7FAB094B7F8B0942DEC3CEC4CECA0
:100BE0005DE3C501B4010E949B0A1816DCF48091F4
:100BF0003001882309F40FC18091310190913201B5
:100C0000A0913301B0913401C81AD90AEA0AFB0A4B
:100C100035E6C316D104E104F10408F404C141E04F
:100C2000409335018091260190912701009709F0AA
:100C3000FEC04092D0015092D1016092D2017092D8
:100C4000D30183E08093D40190E99093D80110926E
:100C5000D9011092DA010E94490285E00E94B50094
:100C6000019709F0CBC186E00E94B5008130910563
:100C700009F0C4C190932701809326010E947C0152
:100C800060932201709323018093240190932501A6
:100C90008091260190912701039709F0AFC18091BF
:100CA0003501882309F443C14092D0015092D1010B
:100CB0006092D2017092D30193E09093D401A0E9A5
:100CC000A093D8011092D9011092DA017EC10430AC
:100CD000110509F47BC008F477C00530110509F04F
:100CE00039CE88E101C084E0B1E0CB16D10409F02F
:100CF00071C0C455DF4F1882CC5AD040C555DF4F64
:100D00001882CB5AD040C655DF4FB882CA5AD0405D
:100D1000C755DF4F1882C95AD04044E0BE0167551D
:100D20007F4F0E942502EFEFCE1ADE0AF6E0CF16C3
:100D3000D10409F0F8CDC355DF4F19821882CD5A7E
:100D4000D04081E090E0C155DF4F99838883CF5A2E
:100D5000D0408E0103551F4F680124E0C20ED11C04
:100D6000E8E0BE2ED801ED90FD908D0180E80E9454
:100D7000E501892B09F0EECDC455DF4F1882CC5A1E
:100D8000D040C555DF4F1882CB5AD040C655DF4FF3
:100D9000B882CA5AD040C755DF4F1882C95AD040CE
:100DA000E114F10461F1EA94EF2809F0D3CD84E273
:100DB00044E0BE0167557F4F0E942502C016D10650
:100DC00089F6C8CD88E090CF80E18ECF84E18CCFCA
:100DD00080E08ACFC755DF4F1882C95AD040C65528
:100DE000DF4F1882CA5AD040C455DF4F1882CC5A00
:100DF000D040C555DF4F1882CB5AD0408ECF80E20D
:100E0000D7CFC501B4010E94CF0876CEC501B40189
:100E10000E94CF08A2CEC0923101D0923201E0925E
:100E20003301F092340151E050933001FBCE813018
:100E3000910509F042C04092D0015092D1016092D8
:100E4000D2017092D301A3E0A093D401B0E9B09392
:100E5000D8011092D9011092DA010E94490285E06E
:100E60000E94B500892B21F186E00E94B500892BF4
:100E7000F9F00E947C010091220110912301209140
:100E8000240130912501601B710B820B930B603D97
:100E900077408105910508F4B1C022E030E030933D
:100EA00027012093260161E082E00E94DE00E6CE69
:100EB0001092270110922601E1CE029709F0E8CEA8
:100EC0004092D0015092D1016092D2017092D30130
:100ED00033E03093D40140E94093D8011092D90116
:100EE0001092DA010E9449020E947C0100912201C5
:100EF000109123012091240130912501601B710B79
:100F0000820B930B603D77408105910508F476C014
:100F100061E083E00E94DE0060E082E00E94DE008B
:100F200083E090E09093270180932601B1CE6091F9
:100F3000280170912901072E000C880B990B0E9443
:100F4000EB0920E030E040EA50E40E94A00A20E0F3
:100F500030E040E85AE30E94A00A6B017C0120E0E7
:100F600030E0A9010E943C0987FD45C023E333E33B
:100F700043E950E4C701B6010E943C0987FF2FC036
:100F800020E030EF4FEF56E4C701B6010E94A00AFF
:100F900023E333E343E950E40E9441090E94B3098B
:100FA0007195619571094092D0015092D101609282
:100FB000D2017092D301B3E0B093D401E0E9E093A1
:100FC000D8016093D9017093DA010E94490240E090
:100FD00050E0452B09F4DBCC0E940000D8CC2DEC6E
:100FE0003CEC4CEA50E4C701B6010E943C0968EFB2
:100FF0007FE787FDD5CF70E060E0D2CF80912801F8
:10100000909129018D32914014F310922701109292
:1010100026010E947C01609322017093230180933A
:101020002401909325014092D0015092D101609209
:10103000D2017092D30123E02093D40130E93093A0
:10104000D80140CECF9381E291E09093E601809366
:10105000E501CFB7F89480912001811127C0E0E924
:10106000F0E08491E4EAF0E09491E82FF0E0EE0FF4
:10107000FF1FE859FF4FA591B491EC91E92321F4AA
:1010800061E08AE00E94DE0061E08AE00E941101D6
:101090008CB580618CBD8CB580648CBD61E08DE0C9
:1010A0000E94110161E08BE00E94110180912001FA
:1010B0008F5F80932001CFBF8AE08093E00180E8BA
:1010C00096E9A8E9B0E08093E1019093E201A09352
:1010D000E301B093E40161E08AE00E94110161E064
:1010E0008091E0010E94DE008FEF9FEF90932B0133
:1010F00080932A0190932D0180932C0110922F014F
:1011000010922E0181E080933001109235011092EF
:1011100038011092390110923A0110923B0110925D
:101120007D0110927C0110927F0110927E0110923D
:10113000C1011092C0011092C3011092C201CF915F
:10114000089597FB072E16F4009407D077FD09D079
:101150000E94B50807FC05D03EF4909581959F4FFD
:101160000895709561957F4F0895AA1BBB1B51E1AF
:1011700007C0AA1FBB1FA617B70710F0A61BB70B07
:10118000881F991F5A95A9F780959095BC01CD01AC
:101190000895EE0FFF1F0590F491E02D099450582B
:1011A000BB27AA270E94E7080C94610A0E94530AF1
:1011B00038F00E945A0A20F039F49F3F19F426F4BF
:1011C0000C94500A0EF4E095E7FB0C944A0AE92FC0
:1011D0000E94720A58F3BA176207730784079507CB
:1011E00020F079F4A6F50C94940A0EF4E0950B2EF9
:1011F000BA2FA02D0B01B90190010C01CA01A00169
:101200001124FF27591B99F0593F50F4503E68F1C3
:101210001A16F040A22F232F342F4427585FF3CF04
:10122000469537952795A795F0405395C9F77EF4D5
:101230001F16BA0B620B730B840BBAF09150A1F01E
:10124000FF0FBB1F661F771F881FC2F70EC0BA0FA4
:10125000621F731F841F48F4879577956795B7952C
:10126000F7959E3F08F0B0CF9395880F08F0992727
:10127000EE0F9795879508950E94260A08F481E05D
:1012800008950E9455090C94610A0E945A0A58F068
:101290000E94530A40F029F45F3F29F00C944A0A57
:1012A00051110C94950A0C94500A0E94720A68F32A
:1012B0009923B1F3552391F3951B550BBB27AA270F
:1012C00062177307840738F09F5F5F4F220F331F49
:1012D000441FAA1FA9F335D00E2E3AF0E0E832D011
:1012E00091505040E695001CCAF72BD0FE2F29D014
:1012F000660F771F881FBB1F261737074807AB07E6
:10130000B0E809F0BB0B802DBF01FF2793585F4F5A
:101310003AF09E3F510578F00C944A0A0C94950AD5
:101320005F3FE4F3983ED4F3869577956795B7953C
:10133000F7959F5FC9F7880F911D9695879597F947
:101340000895E1E0660F771F881FBB1F62177307C0
:101350008407BA0720F0621B730B840BBA0BEE1FD5
:1013600088F7E09508950E94BA096894B1110C9429
:10137000950A08950E947A0A88F09F5798F0B92F2D
:101380009927B751B0F0E1F0660F771F881F991FBA
:101390001AF0BA95C9F714C0B13091F00E94940ABE
:1013A000B1E008950C94940A672F782F8827B85FCE
:1013B00039F0B93FCCF3869577956795B395D9F712
:1013C0003EF490958095709561957F4F8F4F9F4F1C
:1013D0000895E89409C097FB3EF490958095709528
:1013E00061957F4F8F4F9F4F9923A9F0F92F96E971
:1013F000BB279395F695879577956795B795F111E6
:10140000F8CFFAF4BB0F11F460FF1BC06F5F7F4F82
:101410008F4F9F4F16C0882311F096E911C0772394
:1014200021F09EE8872F762F05C0662371F096E89D
:10143000862F70E060E02AF09A95660F771F881F6C
:10144000DAF7880F9695879597F90895990F000810
:10145000550FAA0BE0E8FEEF16161706E807F90786
:10146000C0F012161306E407F50798F0621B730B21
:10147000840B950B39F40A2661F0232B242B252BA2
:1014800021F408950A2609F4A140A6958FEF811D45
:10149000811D089597F99F6780E870E060E00895E6
:1014A0009FEF80EC089500240A941616170618067C
:1014B0000906089500240A94121613061406050658
:1014C0000895092E0394000C11F4882352F0BB0FE9
:1014D00040F4BF2B11F460FF04C06F5F7F4F8F4F4C
:1014E0009F4F089557FD9058440F551F59F05F3F87
:1014F00071F04795880F97FB991F61F09F3F79F036
:1015000087950895121613061406551FF2CF4695B7
:10151000F1DF08C0161617061806991FF1CF869539
:101520007105610508940895E894BB27662777271D
:10153000CB0197F908950E94260A08F48FEF0895C9
:101540000E94B30A0C94610A0E94530A38F00E9468
:101550005A0A20F0952311F00C944A0A0C94500A70
:1015600011240C94950A0E94720A70F3959FC1F39E
:10157000950F50E0551F629FF001729FBB27F00D41
:10158000B11D639FAA27F00DB11DAA1F649F662796
:10159000B00DA11D661F829F2227B00DA11D621FE5
:1015A000739FB00DA11D621F839FA00D611D221F9F
:1015B000749F3327A00D611D231F849F600D211D83
:1015C000822F762F6A2F11249F5750409AF0F1F006
:1015D00088234AF0EE0FFF1FBB1F661F771F881F6F
:1015E00091505040A9F79E3F510580F00C944A0A53
:1015F0000C94950A5F3FE4F3983ED4F38695779573
:101600006795B795F795E7959F5FC1F7FE2B880F14
:10161000911D9695879597F90895FB01DC0102C00D
:1016200001900D9241505040D8F70895F894FFCFA3
:10163000000001000200000001000200030004009D
:0C16400005003031364041465051560044
:00000001FF
